{
  "_format": "hh-sol-artifact-1",
  "contractName": "Resolver",
  "sourceName": "src/Resolver.sol",
  "abi": [
    {
      "anonymous": false,
      "inputs": [
        {
          "indexed": true,
          "internalType": "address",
          "name": "previousOwner",
          "type": "address"
        },
        {
          "indexed": true,
          "internalType": "address",
          "name": "newOwner",
          "type": "address"
        }
      ],
      "name": "OwnershipTransferred",
      "type": "event"
    },
    {
      "inputs": [
        {
          "internalType": "uint8",
          "name": "_pt",
          "type": "uint8"
        }
      ],
      "name": "getPaymentToken",
      "outputs": [
        {
          "internalType": "address",
          "name": "",
          "type": "address"
        }
      ],
      "stateMutability": "view",
      "type": "function"
    },
    {
      "inputs": [],
      "name": "owner",
      "outputs": [
        {
          "internalType": "address",
          "name": "",
          "type": "address"
        }
      ],
      "stateMutability": "view",
      "type": "function"
    },
    {
      "inputs": [],
      "name": "renounceOwnership",
      "outputs": [],
      "stateMutability": "nonpayable",
      "type": "function"
    },
    {
      "inputs": [
        {
          "internalType": "uint8",
          "name": "_pt",
          "type": "uint8"
        },
        {
          "internalType": "address",
          "name": "_v",
          "type": "address"
        }
      ],
      "name": "setPaymentToken",
      "outputs": [],
      "stateMutability": "nonpayable",
      "type": "function"
    },
    {
      "inputs": [
        {
          "internalType": "address",
          "name": "newOwner",
          "type": "address"
        }
      ],
      "name": "transferOwnership",
      "outputs": [],
      "stateMutability": "nonpayable",
      "type": "function"
    }
  ],
  "bytecode": "0x608060405234801561001057600080fd5b5061001a3361001f565b61006f565b600080546001600160a01b038381166001600160a01b0319831681178455604051919092169283917f8be0079c531659141344cd1fd0a4f28419497f9722a3daafe3b4186f6b6457e09190a35050565b6104288061007e6000396000f3fe608060405234801561001057600080fd5b50600436106100675760003560e01c80638da5cb5b116100505780638da5cb5b14610089578063c6ee427f146100b2578063f2fde38b146100de57600080fd5b8063321c6aea1461006c578063715018a614610081575b600080fd5b61007f61007a366004610382565b6100f1565b005b61007f6101fa565b6000546001600160a01b03165b6040516001600160a01b03909116815260200160405180910390f35b6100966100c03660046103b5565b60ff166000908152600160205260409020546001600160a01b031690565b61007f6100ec3660046103d7565b61020e565b6100f961029e565b8160ff166000036101515760405162461bcd60e51b815260206004820152601860248201527f52654e46543a3a63616e74207365742073656e74696e656c000000000000000060448201526064015b60405180910390fd5b60ff82166000908152600160205260409020546001600160a01b0316156101ba5760405162461bcd60e51b815260206004820152601f60248201527f52654e46543a3a63616e6e6f74207265736574207468652061646472657373006044820152606401610148565b60ff919091166000908152600160205260409020805473ffffffffffffffffffffffffffffffffffffffff19166001600160a01b03909216919091179055565b61020261029e565b61020c60006102f8565b565b61021661029e565b6001600160a01b0381166102925760405162461bcd60e51b815260206004820152602660248201527f4f776e61626c653a206e6577206f776e657220697320746865207a65726f206160448201527f64647265737300000000000000000000000000000000000000000000000000006064820152608401610148565b61029b816102f8565b50565b6000546001600160a01b0316331461020c5760405162461bcd60e51b815260206004820181905260248201527f4f776e61626c653a2063616c6c6572206973206e6f7420746865206f776e65726044820152606401610148565b600080546001600160a01b0383811673ffffffffffffffffffffffffffffffffffffffff19831681178455604051919092169283917f8be0079c531659141344cd1fd0a4f28419497f9722a3daafe3b4186f6b6457e09190a35050565b803560ff8116811461036657600080fd5b919050565b80356001600160a01b038116811461036657600080fd5b6000806040838503121561039557600080fd5b61039e83610355565b91506103ac6020840161036b565b90509250929050565b6000602082840312156103c757600080fd5b6103d082610355565b9392505050565b6000602082840312156103e957600080fd5b6103d08261036b56fea2646970667358221220cedb2b18530437f0c00ae0355a29a8e3d001e98c5d1eae5e5ecc946d841d803264736f6c63430008130033",
  "linkReferences": {},
  "deployedLinkReferences": {}
}