{
  "_format": "hh-sol-artifact-1",
  "contractName": "Snews",
  "sourceName": "src/Snews.sol",
  "abi": [
    {
      "anonymous": false,
      "inputs": [
        {
          "indexed": true,
          "internalType": "address",
          "name": "owner",
          "type": "address"
        },
        {
          "indexed": true,
          "internalType": "address",
          "name": "approved",
          "type": "address"
        },
        {
          "indexed": true,
          "internalType": "uint256",
          "name": "tokenId",
          "type": "uint256"
        }
      ],
      "name": "Approval",
      "type": "event"
    },
    {
      "anonymous": false,
      "inputs": [
        {
          "indexed": true,
          "internalType": "address",
          "name": "owner",
          "type": "address"
        },
        {
          "indexed": true,
          "internalType": "address",
          "name": "operator",
          "type": "address"
        },
        {
          "indexed": false,
          "internalType": "bool",
          "name": "approved",
          "type": "bool"
        }
      ],
      "name": "ApprovalForAll",
      "type": "event"
    },
    {
      "anonymous": false,
      "inputs": [
        {
          "indexed": true,
          "internalType": "uint256",
          "name": "tokenId",
          "type": "uint256"
        },
        {
          "indexed": false,
          "internalType": "address",
          "name": "readerAddress",
          "type": "address"
        },
        {
          "indexed": false,
          "internalType": "uint256",
          "name": "tokenValue",
          "type": "uint256"
        },
        {
          "indexed": false,
          "internalType": "string",
          "name": "transactionId",
          "type": "string"
        }
      ],
      "name": "ClaimToken",
      "type": "event"
    },
    {
      "anonymous": false,
      "inputs": [
        {
          "indexed": true,
          "internalType": "uint256",
          "name": "tokenId",
          "type": "uint256"
        },
        {
          "indexed": true,
          "internalType": "address",
          "name": "ownerAddress",
          "type": "address"
        },
        {
          "indexed": false,
          "internalType": "string",
          "name": "slug",
          "type": "string"
        },
        {
          "indexed": false,
          "internalType": "uint256",
          "name": "totalSupply",
          "type": "uint256"
        },
        {
          "indexed": false,
          "internalType": "uint8",
          "name": "paymentToken",
          "type": "uint8"
        }
      ],
      "name": "CreateNews",
      "type": "event"
    },
    {
      "anonymous": false,
      "inputs": [
        {
          "indexed": false,
          "internalType": "uint8",
          "name": "version",
          "type": "uint8"
        }
      ],
      "name": "Initialized",
      "type": "event"
    },
    {
      "anonymous": false,
      "inputs": [
        {
          "indexed": true,
          "internalType": "address",
          "name": "previousOwner",
          "type": "address"
        },
        {
          "indexed": true,
          "internalType": "address",
          "name": "newOwner",
          "type": "address"
        }
      ],
      "name": "OwnershipTransferred",
      "type": "event"
    },
    {
      "anonymous": false,
      "inputs": [
        {
          "indexed": true,
          "internalType": "bytes32",
          "name": "role",
          "type": "bytes32"
        },
        {
          "indexed": true,
          "internalType": "bytes32",
          "name": "previousAdminRole",
          "type": "bytes32"
        },
        {
          "indexed": true,
          "internalType": "bytes32",
          "name": "newAdminRole",
          "type": "bytes32"
        }
      ],
      "name": "RoleAdminChanged",
      "type": "event"
    },
    {
      "anonymous": false,
      "inputs": [
        {
          "indexed": true,
          "internalType": "bytes32",
          "name": "role",
          "type": "bytes32"
        },
        {
          "indexed": true,
          "internalType": "address",
          "name": "account",
          "type": "address"
        },
        {
          "indexed": true,
          "internalType": "address",
          "name": "sender",
          "type": "address"
        }
      ],
      "name": "RoleGranted",
      "type": "event"
    },
    {
      "anonymous": false,
      "inputs": [
        {
          "indexed": true,
          "internalType": "bytes32",
          "name": "role",
          "type": "bytes32"
        },
        {
          "indexed": true,
          "internalType": "address",
          "name": "account",
          "type": "address"
        },
        {
          "indexed": true,
          "internalType": "address",
          "name": "sender",
          "type": "address"
        }
      ],
      "name": "RoleRevoked",
      "type": "event"
    },
    {
      "anonymous": false,
      "inputs": [
        {
          "indexed": true,
          "internalType": "address",
          "name": "from",
          "type": "address"
        },
        {
          "indexed": true,
          "internalType": "address",
          "name": "to",
          "type": "address"
        },
        {
          "indexed": true,
          "internalType": "uint256",
          "name": "tokenId",
          "type": "uint256"
        }
      ],
      "name": "Transfer",
      "type": "event"
    },
    {
      "inputs": [],
      "name": "DEFAULT_ADMIN_ROLE",
      "outputs": [
        {
          "internalType": "bytes32",
          "name": "",
          "type": "bytes32"
        }
      ],
      "stateMutability": "view",
      "type": "function"
    },
    {
      "inputs": [],
      "name": "WRITER_ROLE",
      "outputs": [
        {
          "internalType": "bytes32",
          "name": "",
          "type": "bytes32"
        }
      ],
      "stateMutability": "view",
      "type": "function"
    },
    {
      "inputs": [
        {
          "internalType": "address",
          "name": "_resolver",
          "type": "address"
        }
      ],
      "name": "__Snews_init",
      "outputs": [],
      "stateMutability": "nonpayable",
      "type": "function"
    },
    {
      "inputs": [
        {
          "internalType": "address",
          "name": "to",
          "type": "address"
        },
        {
          "internalType": "uint256",
          "name": "tokenId",
          "type": "uint256"
        }
      ],
      "name": "approve",
      "outputs": [],
      "stateMutability": "nonpayable",
      "type": "function"
    },
    {
      "inputs": [
        {
          "internalType": "address",
          "name": "account",
          "type": "address"
        }
      ],
      "name": "approveWriterRole",
      "outputs": [],
      "stateMutability": "nonpayable",
      "type": "function"
    },
    {
      "inputs": [
        {
          "internalType": "address",
          "name": "owner",
          "type": "address"
        }
      ],
      "name": "balanceOf",
      "outputs": [
        {
          "internalType": "uint256",
          "name": "",
          "type": "uint256"
        }
      ],
      "stateMutability": "view",
      "type": "function"
    },
    {
      "inputs": [
        {
          "internalType": "string",
          "name": "slug",
          "type": "string"
        },
        {
          "internalType": "string",
          "name": "transactionId",
          "type": "string"
        },
        {
          "components": [
            {
              "internalType": "uint256",
              "name": "deadline",
              "type": "uint256"
            },
            {
              "internalType": "uint8",
              "name": "v",
              "type": "uint8"
            },
            {
              "internalType": "bytes32",
              "name": "r",
              "type": "bytes32"
            },
            {
              "internalType": "bytes32",
              "name": "s",
              "type": "bytes32"
            }
          ],
          "internalType": "struct ISnews.EIP712Signature",
          "name": "_signature",
          "type": "tuple"
        }
      ],
      "name": "claimToken",
      "outputs": [],
      "stateMutability": "nonpayable",
      "type": "function"
    },
    {
      "inputs": [
        {
          "internalType": "string",
          "name": "slug",
          "type": "string"
        },
        {
          "internalType": "uint8",
          "name": "_pt",
          "type": "uint8"
        },
        {
          "internalType": "uint256",
          "name": "totalSupply",
          "type": "uint256"
        }
      ],
      "name": "createNews",
      "outputs": [],
      "stateMutability": "nonpayable",
      "type": "function"
    },
    {
      "inputs": [
        {
          "internalType": "uint256",
          "name": "tokenId",
          "type": "uint256"
        }
      ],
      "name": "getApproved",
      "outputs": [
        {
          "internalType": "address",
          "name": "",
          "type": "address"
        }
      ],
      "stateMutability": "view",
      "type": "function"
    },
    {
      "inputs": [
        {
          "internalType": "bytes32",
          "name": "role",
          "type": "bytes32"
        }
      ],
      "name": "getRoleAdmin",
      "outputs": [
        {
          "internalType": "bytes32",
          "name": "",
          "type": "bytes32"
        }
      ],
      "stateMutability": "view",
      "type": "function"
    },
    {
      "inputs": [
        {
          "internalType": "bytes32",
          "name": "role",
          "type": "bytes32"
        },
        {
          "internalType": "address",
          "name": "account",
          "type": "address"
        }
      ],
      "name": "grantRole",
      "outputs": [],
      "stateMutability": "nonpayable",
      "type": "function"
    },
    {
      "inputs": [
        {
          "internalType": "bytes32",
          "name": "role",
          "type": "bytes32"
        },
        {
          "internalType": "address",
          "name": "account",
          "type": "address"
        }
      ],
      "name": "hasRole",
      "outputs": [
        {
          "internalType": "bool",
          "name": "",
          "type": "bool"
        }
      ],
      "stateMutability": "view",
      "type": "function"
    },
    {
      "inputs": [
        {
          "internalType": "address",
          "name": "owner",
          "type": "address"
        },
        {
          "internalType": "address",
          "name": "operator",
          "type": "address"
        }
      ],
      "name": "isApprovedForAll",
      "outputs": [
        {
          "internalType": "bool",
          "name": "",
          "type": "bool"
        }
      ],
      "stateMutability": "view",
      "type": "function"
    },
    {
      "inputs": [],
      "name": "name",
      "outputs": [
        {
          "internalType": "string",
          "name": "",
          "type": "string"
        }
      ],
      "stateMutability": "view",
      "type": "function"
    },
    {
      "inputs": [
        {
          "internalType": "bytes32",
          "name": "",
          "type": "bytes32"
        }
      ],
      "name": "newsFund",
      "outputs": [
        {
          "internalType": "uint256",
          "name": "",
          "type": "uint256"
        }
      ],
      "stateMutability": "view",
      "type": "function"
    },
    {
      "inputs": [
        {
          "internalType": "bytes32",
          "name": "",
          "type": "bytes32"
        }
      ],
      "name": "newsStorage",
      "outputs": [
        {
          "internalType": "uint256",
          "name": "tokenId",
          "type": "uint256"
        },
        {
          "internalType": "string",
          "name": "slug",
          "type": "string"
        },
        {
          "internalType": "uint256",
          "name": "totalSupply",
          "type": "uint256"
        },
        {
          "internalType": "address",
          "name": "owner",
          "type": "address"
        },
        {
          "internalType": "uint8",
          "name": "paymentToken",
          "type": "uint8"
        }
      ],
      "stateMutability": "view",
      "type": "function"
    },
    {
      "inputs": [
        {
          "internalType": "address",
          "name": "",
          "type": "address"
        },
        {
          "internalType": "address",
          "name": "",
          "type": "address"
        },
        {
          "internalType": "uint256",
          "name": "",
          "type": "uint256"
        },
        {
          "internalType": "bytes",
          "name": "",
          "type": "bytes"
        }
      ],
      "name": "onERC721Received",
      "outputs": [
        {
          "internalType": "bytes4",
          "name": "",
          "type": "bytes4"
        }
      ],
      "stateMutability": "nonpayable",
      "type": "function"
    },
    {
      "inputs": [],
      "name": "owner",
      "outputs": [
        {
          "internalType": "address",
          "name": "",
          "type": "address"
        }
      ],
      "stateMutability": "view",
      "type": "function"
    },
    {
      "inputs": [
        {
          "internalType": "uint256",
          "name": "tokenId",
          "type": "uint256"
        }
      ],
      "name": "ownerOf",
      "outputs": [
        {
          "internalType": "address",
          "name": "",
          "type": "address"
        }
      ],
      "stateMutability": "view",
      "type": "function"
    },
    {
      "inputs": [],
      "name": "renounceOwnership",
      "outputs": [],
      "stateMutability": "nonpayable",
      "type": "function"
    },
    {
      "inputs": [
        {
          "internalType": "bytes32",
          "name": "role",
          "type": "bytes32"
        },
        {
          "internalType": "address",
          "name": "account",
          "type": "address"
        }
      ],
      "name": "renounceRole",
      "outputs": [],
      "stateMutability": "nonpayable",
      "type": "function"
    },
    {
      "inputs": [],
      "name": "resolver",
      "outputs": [
        {
          "internalType": "contract IResolver",
          "name": "",
          "type": "address"
        }
      ],
      "stateMutability": "view",
      "type": "function"
    },
    {
      "inputs": [
        {
          "internalType": "bytes32",
          "name": "role",
          "type": "bytes32"
        },
        {
          "internalType": "address",
          "name": "account",
          "type": "address"
        }
      ],
      "name": "revokeRole",
      "outputs": [],
      "stateMutability": "nonpayable",
      "type": "function"
    },
    {
      "inputs": [
        {
          "internalType": "address",
          "name": "from",
          "type": "address"
        },
        {
          "internalType": "address",
          "name": "to",
          "type": "address"
        },
        {
          "internalType": "uint256",
          "name": "tokenId",
          "type": "uint256"
        }
      ],
      "name": "safeTransferFrom",
      "outputs": [],
      "stateMutability": "nonpayable",
      "type": "function"
    },
    {
      "inputs": [
        {
          "internalType": "address",
          "name": "from",
          "type": "address"
        },
        {
          "internalType": "address",
          "name": "to",
          "type": "address"
        },
        {
          "internalType": "uint256",
          "name": "tokenId",
          "type": "uint256"
        },
        {
          "internalType": "bytes",
          "name": "data",
          "type": "bytes"
        }
      ],
      "name": "safeTransferFrom",
      "outputs": [],
      "stateMutability": "nonpayable",
      "type": "function"
    },
    {
      "inputs": [
        {
          "internalType": "address",
          "name": "operator",
          "type": "address"
        },
        {
          "internalType": "bool",
          "name": "approved",
          "type": "bool"
        }
      ],
      "name": "setApprovalForAll",
      "outputs": [],
      "stateMutability": "nonpayable",
      "type": "function"
    },
    {
      "inputs": [
        {
          "internalType": "address",
          "name": "_signer",
          "type": "address"
        }
      ],
      "name": "setSigner",
      "outputs": [],
      "stateMutability": "nonpayable",
      "type": "function"
    },
    {
      "inputs": [
        {
          "internalType": "string",
          "name": "",
          "type": "string"
        }
      ],
      "name": "slugStorage",
      "outputs": [
        {
          "internalType": "bool",
          "name": "",
          "type": "bool"
        }
      ],
      "stateMutability": "view",
      "type": "function"
    },
    {
      "inputs": [
        {
          "internalType": "bytes4",
          "name": "interfaceId",
          "type": "bytes4"
        }
      ],
      "name": "supportsInterface",
      "outputs": [
        {
          "internalType": "bool",
          "name": "",
          "type": "bool"
        }
      ],
      "stateMutability": "view",
      "type": "function"
    },
    {
      "inputs": [],
      "name": "symbol",
      "outputs": [
        {
          "internalType": "string",
          "name": "",
          "type": "string"
        }
      ],
      "stateMutability": "view",
      "type": "function"
    },
    {
      "inputs": [
        {
          "internalType": "uint256",
          "name": "tokenId",
          "type": "uint256"
        }
      ],
      "name": "tokenURI",
      "outputs": [
        {
          "internalType": "string",
          "name": "",
          "type": "string"
        }
      ],
      "stateMutability": "view",
      "type": "function"
    },
    {
      "inputs": [
        {
          "internalType": "address",
          "name": "",
          "type": "address"
        }
      ],
      "name": "tokenWithDrawalNonces",
      "outputs": [
        {
          "internalType": "uint256",
          "name": "",
          "type": "uint256"
        }
      ],
      "stateMutability": "view",
      "type": "function"
    },
    {
      "inputs": [
        {
          "internalType": "address",
          "name": "from",
          "type": "address"
        },
        {
          "internalType": "address",
          "name": "to",
          "type": "address"
        },
        {
          "internalType": "uint256",
          "name": "tokenId",
          "type": "uint256"
        }
      ],
      "name": "transferFrom",
      "outputs": [],
      "stateMutability": "nonpayable",
      "type": "function"
    },
    {
      "inputs": [
        {
          "internalType": "address",
          "name": "newOwner",
          "type": "address"
        }
      ],
      "name": "transferOwnership",
      "outputs": [],
      "stateMutability": "nonpayable",
      "type": "function"
    },
    {
      "inputs": [
        {
          "internalType": "address",
          "name": "",
          "type": "address"
        },
        {
          "internalType": "uint256",
          "name": "",
          "type": "uint256"
        }
      ],
      "name": "userClaimNews",
      "outputs": [
        {
          "internalType": "bool",
          "name": "",
          "type": "bool"
        }
      ],
      "stateMutability": "view",
      "type": "function"
    }
  ],
  "bytecode": "0x608060405234801561001057600080fd5b50613896806100206000396000f3fe608060405234801561001057600080fd5b50600436106102415760003560e01c806370a0823111610145578063af58ea72116100bd578063cf0156461161008c578063d547741f11610071578063d547741f1461058d578063e985e9c5146105a0578063f2fde38b146105dc57600080fd5b8063cf01564614610567578063d0cb7eef1461057a57600080fd5b8063af58ea72146104e3578063b4fa9b9c14610512578063b88d4fde14610541578063c87b56dd1461055457600080fd5b806395d89b41116101145780639e888ca3116100f95780639e888ca3146104a7578063a217fddf146104c8578063a22cb465146104d057600080fd5b806395d89b41146104785780639beaab7b1461048057600080fd5b806370a0823114610412578063715018a6146104255780638da5cb5b1461042d57806391d148541461043e57600080fd5b806323b872dd116101d857806342842e0e116101a75780634c44d0df1161018c5780634c44d0df146103cb5780636352211e146103ec5780636c19e783146103ff57600080fd5b806342842e0e146103a557806344e5b590146103b857600080fd5b806323b872dd1461033a578063248a9ca31461034d5780632f2ff15d1461037f57806336568abe1461039257600080fd5b8063081812fc11610214578063081812fc146102d3578063095ea7b3146102e6578063098fab79146102fb578063150b7a021461030e57600080fd5b806301ffc9a71461024657806303c9f7d21461026e57806304f3bcec1461029257806306fdde03146102be575b600080fd5b610259610254366004612fe6565b6105ef565b60405190151581526020015b60405180910390f35b61028161027c366004613003565b610633565b60405161026595949392919061306c565b61015f546102a6906001600160a01b031681565b6040516001600160a01b039091168152602001610265565b6102c66106fa565b60405161026591906130ae565b6102a66102e1366004613003565b61078c565b6102f96102f43660046130d6565b6107b3565b005b6102f96103093660046131ae565b6108e9565b61032161031c366004613260565b610d8b565b6040516001600160e01b03199091168152602001610265565b6102f96103483660046132e0565b610d9c565b61037161035b366004613003565b600090815261012d602052604090206001015490565b604051908152602001610265565b6102f961038d366004613321565b610e13565b6102f96103a0366004613321565b610e39565b6102f96103b33660046132e0565b610ec5565b6102f96103c6366004613367565b610ee0565b6103716103d9366004613003565b6101646020526000908152604090205481565b6102a66103fa366004613003565b611208565b6102f961040d3660046133be565b61126d565b6103716104203660046133be565b611298565b6102f9611332565b60fb546001600160a01b03166102a6565b61025961044c366004613321565b600091825261012d602090815260408084206001600160a01b0393909316845291905290205460ff1690565b6102c6611346565b6103717f2b8f168f361ac1393a163ed4adfa899a87be7b7c71645167bdaddd822ae453c881565b6103716104b53660046133be565b6101676020526000908152604090205481565b610371600081565b6102f96104de3660046133e9565b611355565b6102596104f13660046130d6565b61016660209081526000928352604080842090915290825290205460ff1681565b610259610520366004613417565b80516020818301810180516101658252928201919093012091525460ff1681565b6102f961054f366004613260565b611360565b6102c6610562366004613003565b6113d8565b6102f96105753660046133be565b61144c565b6102f96105883660046133be565b611493565b6102f961059b366004613321565b611753565b6102596105ae36600461344c565b6001600160a01b039182166000908152606a6020908152604080832093909416825291909152205460ff1690565b6102f96105ea3660046133be565b611779565b60006001600160e01b031982167f826b48af00000000000000000000000000000000000000000000000000000000148061062d575061062d82611806565b92915050565b61016360205260009081526040902080546001820180549192916106569061347a565b80601f01602080910402602001604051908101604052809291908181526020018280546106829061347a565b80156106cf5780601f106106a4576101008083540402835291602001916106cf565b820191906000526020600020905b8154815290600101906020018083116106b257829003601f168201915b5050505060028301546003909301549192916001600160a01b0381169150600160a01b900460ff1685565b6060606580546107099061347a565b80601f01602080910402602001604051908101604052809291908181526020018280546107359061347a565b80156107825780601f1061075757610100808354040283529160200191610782565b820191906000526020600020905b81548152906001019060200180831161076557829003601f168201915b5050505050905090565b600061079782611844565b506000908152606960205260409020546001600160a01b031690565b60006107be82611208565b9050806001600160a01b0316836001600160a01b03160361084c5760405162461bcd60e51b815260206004820152602160248201527f4552433732313a20617070726f76616c20746f2063757272656e74206f776e6560448201527f720000000000000000000000000000000000000000000000000000000000000060648201526084015b60405180910390fd5b336001600160a01b0382161480610868575061086881336105ae565b6108da5760405162461bcd60e51b815260206004820152603d60248201527f4552433732313a20617070726f76652063616c6c6572206973206e6f7420746f60448201527f6b656e206f776e6572206f7220617070726f76656420666f7220616c6c0000006064820152608401610843565b6108e483836118a8565b505050565b6108f1611916565b600061016360008660405160200161090991906134b4565b6040516020818303038152906040528051906020012081526020019081526020016000206040518060a0016040529081600082015481526020016001820180546109529061347a565b80601f016020809104026020016040519081016040528092919081815260200182805461097e9061347a565b80156109cb5780601f106109a0576101008083540402835291602001916109cb565b820191906000526020600020905b8154815290600101906020018083116109ae57829003601f168201915b5050509183525050600282015460208201526003909101546001600160a01b0381166040830152600160a01b900460ff1660609091015290506101666000336001600160a01b03168152602080820192909252604090810160009081208451825290925290205460ff1615610a825760405162461bcd60e51b815260206004820152601b60248201527f757365722068617320636c61696d65642074686973206e6577732100000000006044820152606401610843565b8060400151600003610ad65760405162461bcd60e51b815260206004820152601560248201527f546865204e6577732063616e277420636c61696d2100000000000000000000006044820152606401610843565b600061016254610b7d610ae63390565b845133600090815261016760205260408120805491610b04836134e6565b919050558660400151604080517fdd5592780bd7231d83d2e6265e8c5ddf203c9f750fe966708c54a0596931d50a6020808301919091526001600160a01b0396909616818301526060810194909452608084019290925260a0808401919091528151808403909101815260c09092019052805191012090565b6040517f19010000000000000000000000000000000000000000000000000000000000006020820152602281019290925260428201526062016040516020818303038152906040528051906020012090506000600182856020016020810190610be691906134ff565b6040805160008152602081018083529390935260ff90911682820152860135606080830191909152860135608082015260a0016020604051602081039080840390855afa158015610c3b573d6000803e3d6000fd5b5050604051601f190151610160549092506001600160a01b038084169116149050610ca85760405162461bcd60e51b815260206004820152601160248201527f5369676e617475726520696e76616c69640000000000000000000000000000006044820152606401610843565b610d2e3360408581015161015f546080880151925163c6ee427f60e01b815260ff909316600484015290916001600160a01b039091169063c6ee427f90602401602060405180830381865afa158015610d05573d6000803e3d6000fd5b505050506040513d601f19601f82011682018060405250810190610d29919061351a565b61196f565b82517fb0bb310ecca5c5a1e4e71d2f7db06fde0dee835f67892df86942b5b9ac10eeae3385604001518989604051610d699493929190613537565b60405180910390a250506000604090910152610d85600160c955565b50505050565b630a85bd0160e11b5b949350505050565b610da63382611a34565b610e085760405162461bcd60e51b815260206004820152602d60248201527f4552433732313a2063616c6c6572206973206e6f7420746f6b656e206f776e6560448201526c1c881bdc88185c1c1c9bdd9959609a1b6064820152608401610843565b6108e4838383611ab2565b600082815261012d6020526040902060010154610e2f81611cb8565b6108e48383611cc2565b6001600160a01b0381163314610eb75760405162461bcd60e51b815260206004820152602f60248201527f416363657373436f6e74726f6c3a2063616e206f6e6c792072656e6f756e636560448201527f20726f6c657320666f722073656c6600000000000000000000000000000000006064820152608401610843565b610ec18282611d66565b5050565b6108e483838360405180602001604052806000815250611360565b610ee8611916565b7f2b8f168f361ac1393a163ed4adfa899a87be7b7c71645167bdaddd822ae453c8610f1281611cb8565b61016584604051610f2391906134b4565b9081526040519081900360200190205460ff1615610fa95760405162461bcd60e51b815260206004820152602260248201527f54686520536c7567207761732075736564206279206f746865722070656f706c60448201527f65210000000000000000000000000000000000000000000000000000000000006064820152608401610843565b811561106a5761015f5460405163c6ee427f60e01b815260ff8516600482015261102a9184916001600160a01b039091169063c6ee427f90602401602060405180830381865afa158015611001573d6000803e3d6000fd5b505050506040513d601f19601f82011682018060405250810190611025919061351a565b611deb565b8161016460008660405160200161104191906134b4565b604051602081830303815290604052805190602001208152602001908152602001600020819055505b60006110766101615490565b90506040518060a0016040528082815260200186815260200184815260200161109c3390565b6001600160a01b031681526020018560ff168152506101636000876040516020016110c791906134b4565b60408051601f19818403018152918152815160209283012083528282019390935291016000208251815590820151600182019061110490826135cb565b50604082810151600283015560608301516003909201805460809094015160ff16600160a01b027fffffffffffffffffffffff0000000000000000000000000000000000000000009094166001600160a01b039093169290921792909217905551600190610165906111779088906134b4565b908152604051908190036020019020805491151560ff199092169190911790556111a76111a13390565b8261207c565b6111b661016180546001019055565b336001600160a01b0316817f018d1a020dcf99e6f9d178c75e91cadea0a900e747d472f6d93fd116e14d7b008786886040516111f49392919061368b565b60405180910390a350506108e4600160c955565b6000818152606760205260408120546001600160a01b03168061062d5760405162461bcd60e51b815260206004820152601860248201527f4552433732313a20696e76616c696420746f6b656e20494400000000000000006044820152606401610843565b611275612096565b61016080546001600160a01b0319166001600160a01b0392909216919091179055565b60006001600160a01b0382166113165760405162461bcd60e51b815260206004820152602960248201527f4552433732313a2061646472657373207a65726f206973206e6f74206120766160448201527f6c6964206f776e657200000000000000000000000000000000000000000000006064820152608401610843565b506001600160a01b031660009081526068602052604090205490565b61133a612096565b61134460006120f0565b565b6060606680546107099061347a565b610ec1338383612142565b61136a3383611a34565b6113cc5760405162461bcd60e51b815260206004820152602d60248201527f4552433732313a2063616c6c6572206973206e6f7420746f6b656e206f776e6560448201526c1c881bdc88185c1c1c9bdd9959609a1b6064820152608401610843565b610d8584848484612210565b60606113e382611844565b60006113fa60408051602081019091526000815290565b9050600081511161141a5760405180602001604052806000815250611445565b806114248461228e565b6040516020016114359291906136b7565b6040516020818303038152906040525b9392505050565b611454612096565b61145c611916565b6114867f2b8f168f361ac1393a163ed4adfa899a87be7b7c71645167bdaddd822ae453c88261232e565b611490600160c955565b50565b600054610100900460ff16158080156114b35750600054600160ff909116105b806114cd5750303b1580156114cd575060005460ff166001145b61153f5760405162461bcd60e51b815260206004820152602e60248201527f496e697469616c697a61626c653a20636f6e747261637420697320616c72656160448201527f647920696e697469616c697a65640000000000000000000000000000000000006064820152608401610843565b6000805460ff191660011790558015611562576000805461ff0019166101001790555b6115d66040518060400160405280600d81526020017f4e657773206f6620536e657773000000000000000000000000000000000000008152506040518060400160405280600381526020017f534e530000000000000000000000000000000000000000000000000000000000815250612338565b6115de6123ad565b6116087f2b8f168f361ac1393a163ed4adfa899a87be7b7c71645167bdaddd822ae453c83361232e565b6040805160a08082018352600560608084019182527f534e65777300000000000000000000000000000000000000000000000000000060808086019190915291845284518086018652600481527f76312e30000000000000000000000000000000000000000000000000000000006020808301918252808701839052308789018190529651805190820120925190912087517f91ab3d17e3a50a9d89e63fd30b92be7f5336b03b287bb946787a83a9d62a276681840152808901939093529282019290925280830194909452845180850390920182529290910190925281519101206101625561015f80546001600160a01b0319166001600160a01b0384161790558015610ec1576000805461ff0019169055604051600181527f7f26b83ff96e1f2b6a682f133852f6798a09c465da95921460cefb38474024989060200160405180910390a15050565b600082815261012d602052604090206001015461176f81611cb8565b6108e48383611d66565b611781612096565b6001600160a01b0381166117fd5760405162461bcd60e51b815260206004820152602660248201527f4f776e61626c653a206e6577206f776e657220697320746865207a65726f206160448201527f64647265737300000000000000000000000000000000000000000000000000006064820152608401610843565b611490816120f0565b60006001600160e01b031982167f7965db0b00000000000000000000000000000000000000000000000000000000148061062d575061062d82612420565b6000818152606760205260409020546001600160a01b03166114905760405162461bcd60e51b815260206004820152601860248201527f4552433732313a20696e76616c696420746f6b656e20494400000000000000006044820152606401610843565b600081815260696020526040902080546001600160a01b0319166001600160a01b03841690811790915581906118dd82611208565b6001600160a01b03167f8c5be1e5ebec7d5bd14f71427d1e84f3dd0314c0f7b2291e5b200ac8c7c3b92560405160405180910390a45050565b600260c954036119685760405162461bcd60e51b815260206004820152601f60248201527f5265656e7472616e637947756172643a207265656e7472616e742063616c6c006044820152606401610843565b600260c955565b6001600160a01b038116611a20576000836001600160a01b03168360405160006040518083038185875af1925050503d80600081146119ca576040519150601f19603f3d011682016040523d82523d6000602084013e6119cf565b606091505b5050905080610d855760405162461bcd60e51b815260206004820152601a60248201527f5472616e73666572206661696c65643a20676173206572726f720000000000006044820152606401610843565b6108e46001600160a01b03821684846124bb565b600080611a4083611208565b9050806001600160a01b0316846001600160a01b03161480611a8757506001600160a01b038082166000908152606a602090815260408083209388168352929052205460ff165b80610d945750836001600160a01b0316611aa08461078c565b6001600160a01b031614949350505050565b826001600160a01b0316611ac582611208565b6001600160a01b031614611b295760405162461bcd60e51b815260206004820152602560248201527f4552433732313a207472616e736665722066726f6d20696e636f72726563742060448201526437bbb732b960d91b6064820152608401610843565b6001600160a01b038216611ba45760405162461bcd60e51b8152602060048201526024808201527f4552433732313a207472616e7366657220746f20746865207a65726f2061646460448201527f72657373000000000000000000000000000000000000000000000000000000006064820152608401610843565b611bb1838383600161254c565b826001600160a01b0316611bc482611208565b6001600160a01b031614611c285760405162461bcd60e51b815260206004820152602560248201527f4552433732313a207472616e736665722066726f6d20696e636f72726563742060448201526437bbb732b960d91b6064820152608401610843565b600081815260696020908152604080832080546001600160a01b03199081169091556001600160a01b0387811680865260688552838620805460001901905590871680865283862080546001019055868652606790945282852080549092168417909155905184937fddf252ad1be2c89b69c2b068fc378daa952ba7f163c4a11628f55a4df523b3ef91a4505050565b61149081336125d4565b600082815261012d602090815260408083206001600160a01b038516845290915290205460ff16610ec157600082815261012d602090815260408083206001600160a01b03851684529091529020805460ff19166001179055611d223390565b6001600160a01b0316816001600160a01b0316837f2f8788117e7eff1d82e926ec794901d17c78024a50270940304540a733656f0d60405160405180910390a45050565b600082815261012d602090815260408083206001600160a01b038516845290915290205460ff1615610ec157600082815261012d602090815260408083206001600160a01b0385168085529252808320805460ff1916905551339285917ff6391f5c32d9c69d2a47ea670b442974b53935d1edc7fd64eb21e047a839171b9190a45050565b6001600160a01b038116611f0657813414611e6e5760405162461bcd60e51b815260206004820152603260248201527f53656e7420424e422056616c756520646f6573206e6f74206d6174636820737060448201527f656369666965642062696420616d6f756e7400000000000000000000000000006064820152608401610843565b604051600090309034908381818185875af1925050503d8060008114611eb0576040519150601f19603f3d011682016040523d82523d6000602084013e611eb5565b606091505b50509050806108e45760405162461bcd60e51b815260206004820152601a60248201527f5472616e73666572206661696c65643a20676173206572726f720000000000006044820152606401610843565b6040516370a0823160e01b815230600482015281906000906001600160a01b038316906370a0823190602401602060405180830381865afa158015611f4f573d6000803e3d6000fd5b505050506040513d601f19601f82011682018060405250810190611f7391906136e6565b9050611f8a6001600160a01b03831633308761264a565b6040516370a0823160e01b81523060048201526000906001600160a01b038416906370a0823190602401602060405180830381865afa158015611fd1573d6000803e3d6000fd5b505050506040513d601f19601f82011682018060405250810190611ff591906136e6565b90508061200286846136ff565b146120755760405162461bcd60e51b815260206004820152603460248201527f546f6b656e207472616e736665722063616c6c20646964206e6f74207472616e60448201527f7366657220657870656374656420616d6f756e740000000000000000000000006064820152608401610843565b5050505050565b610ec182826040518060200160405280600081525061269b565b60fb546001600160a01b031633146113445760405162461bcd60e51b815260206004820181905260248201527f4f776e61626c653a2063616c6c6572206973206e6f7420746865206f776e65726044820152606401610843565b60fb80546001600160a01b038381166001600160a01b0319831681179093556040519116919082907f8be0079c531659141344cd1fd0a4f28419497f9722a3daafe3b4186f6b6457e090600090a35050565b816001600160a01b0316836001600160a01b0316036121a35760405162461bcd60e51b815260206004820152601960248201527f4552433732313a20617070726f766520746f2063616c6c6572000000000000006044820152606401610843565b6001600160a01b038381166000818152606a6020908152604080832094871680845294825291829020805460ff191686151590811790915591519182527f17307eab39ab6107e8899845ad3d59bd9653f200f220920489ca2b5937696c31910160405180910390a3505050565b61221b848484611ab2565b61222784848484612719565b610d855760405162461bcd60e51b815260206004820152603260248201527f4552433732313a207472616e7366657220746f206e6f6e20455243373231526560448201527131b2b4bb32b91034b6b83632b6b2b73a32b960711b6064820152608401610843565b6060600061229b83612862565b600101905060008167ffffffffffffffff8111156122bb576122bb613102565b6040519080825280601f01601f1916602001820160405280156122e5576020820181803683370190505b5090508181016020015b600019017f3031323334353637383961626364656600000000000000000000000000000000600a86061a8153600a85049450846122ef57509392505050565b610ec18282611cc2565b600054610100900460ff166123a35760405162461bcd60e51b815260206004820152602b60248201527f496e697469616c697a61626c653a20636f6e7472616374206973206e6f74206960448201526a6e697469616c697a696e6760a81b6064820152608401610843565b610ec18282612944565b600054610100900460ff166124185760405162461bcd60e51b815260206004820152602b60248201527f496e697469616c697a61626c653a20636f6e7472616374206973206e6f74206960448201526a6e697469616c697a696e6760a81b6064820152608401610843565b6113446129c8565b60006001600160e01b031982167f80ac58cd00000000000000000000000000000000000000000000000000000000148061248357506001600160e01b031982167f5b5e139f00000000000000000000000000000000000000000000000000000000145b8061062d57507f01ffc9a7000000000000000000000000000000000000000000000000000000006001600160e01b031983161461062d565b6040516001600160a01b0383166024820152604481018290526108e49084907fa9059cbb00000000000000000000000000000000000000000000000000000000906064015b60408051601f198184030181529190526020810180517bffffffffffffffffffffffffffffffffffffffffffffffffffffffff166001600160e01b031990931692909217909152612a3c565b6001811115610d85576001600160a01b03841615612592576001600160a01b0384166000908152606860205260408120805483929061258c908490613712565b90915550505b6001600160a01b03831615610d85576001600160a01b038316600090815260686020526040812080548392906125c99084906136ff565b909155505050505050565b600082815261012d602090815260408083206001600160a01b038516845290915290205460ff16610ec15761260881612b21565b612613836020612b33565b604051602001612624929190613725565b60408051601f198184030181529082905262461bcd60e51b8252610843916004016130ae565b6040516001600160a01b0380851660248301528316604482015260648101829052610d859085907f23b872dd0000000000000000000000000000000000000000000000000000000090608401612500565b6126a58383612d14565b6126b26000848484612719565b6108e45760405162461bcd60e51b815260206004820152603260248201527f4552433732313a207472616e7366657220746f206e6f6e20455243373231526560448201527131b2b4bb32b91034b6b83632b6b2b73a32b960711b6064820152608401610843565b60006001600160a01b0384163b1561285a57604051630a85bd0160e11b81526001600160a01b0385169063150b7a029061275d9033908990889088906004016137a6565b6020604051808303816000875af1925050508015612798575060408051601f3d908101601f19168201909252612795918101906137e2565b60015b612840573d8080156127c6576040519150601f19603f3d011682016040523d82523d6000602084013e6127cb565b606091505b5080516000036128385760405162461bcd60e51b815260206004820152603260248201527f4552433732313a207472616e7366657220746f206e6f6e20455243373231526560448201527131b2b4bb32b91034b6b83632b6b2b73a32b960711b6064820152608401610843565b805181602001fd5b6001600160e01b031916630a85bd0160e11b149050610d94565b506001610d94565b6000807a184f03e93ff9f4daa797ed6e38ed64bf6a1f01000000000000000083106128ab577a184f03e93ff9f4daa797ed6e38ed64bf6a1f010000000000000000830492506040015b6d04ee2d6d415b85acef810000000083106128d7576d04ee2d6d415b85acef8100000000830492506020015b662386f26fc1000083106128f557662386f26fc10000830492506010015b6305f5e100831061290d576305f5e100830492506008015b612710831061292157612710830492506004015b60648310612933576064830492506002015b600a831061062d5760010192915050565b600054610100900460ff166129af5760405162461bcd60e51b815260206004820152602b60248201527f496e697469616c697a61626c653a20636f6e7472616374206973206e6f74206960448201526a6e697469616c697a696e6760a81b6064820152608401610843565b60656129bb83826135cb565b5060666108e482826135cb565b600054610100900460ff16612a335760405162461bcd60e51b815260206004820152602b60248201527f496e697469616c697a61626c653a20636f6e7472616374206973206e6f74206960448201526a6e697469616c697a696e6760a81b6064820152608401610843565b611344336120f0565b6000612a91826040518060400160405280602081526020017f5361666545524332303a206c6f772d6c6576656c2063616c6c206661696c6564815250856001600160a01b0316612ead9092919063ffffffff16565b8051909150156108e45780806020019051810190612aaf91906137ff565b6108e45760405162461bcd60e51b815260206004820152602a60248201527f5361666545524332303a204552433230206f7065726174696f6e20646964206e60448201527f6f742073756363656564000000000000000000000000000000000000000000006064820152608401610843565b606061062d6001600160a01b03831660145b60606000612b4283600261381c565b612b4d9060026136ff565b67ffffffffffffffff811115612b6557612b65613102565b6040519080825280601f01601f191660200182016040528015612b8f576020820181803683370190505b5090507f300000000000000000000000000000000000000000000000000000000000000081600081518110612bc657612bc6613833565b60200101906001600160f81b031916908160001a9053507f780000000000000000000000000000000000000000000000000000000000000081600181518110612c1157612c11613833565b60200101906001600160f81b031916908160001a9053506000612c3584600261381c565b612c409060016136ff565b90505b6001811115612cc5577f303132333435363738396162636465660000000000000000000000000000000085600f1660108110612c8157612c81613833565b1a60f81b828281518110612c9757612c97613833565b60200101906001600160f81b031916908160001a90535060049490941c93612cbe81613849565b9050612c43565b5083156114455760405162461bcd60e51b815260206004820181905260248201527f537472696e67733a20686578206c656e67746820696e73756666696369656e746044820152606401610843565b6001600160a01b038216612d6a5760405162461bcd60e51b815260206004820181905260248201527f4552433732313a206d696e7420746f20746865207a65726f20616464726573736044820152606401610843565b6000818152606760205260409020546001600160a01b031615612dcf5760405162461bcd60e51b815260206004820152601c60248201527f4552433732313a20746f6b656e20616c7265616479206d696e746564000000006044820152606401610843565b612ddd60008383600161254c565b6000818152606760205260409020546001600160a01b031615612e425760405162461bcd60e51b815260206004820152601c60248201527f4552433732313a20746f6b656e20616c7265616479206d696e746564000000006044820152606401610843565b6001600160a01b038216600081815260686020908152604080832080546001019055848352606790915280822080546001600160a01b0319168417905551839291907fddf252ad1be2c89b69c2b068fc378daa952ba7f163c4a11628f55a4df523b3ef908290a45050565b6060610d94848460008585600080866001600160a01b03168587604051612ed491906134b4565b60006040518083038185875af1925050503d8060008114612f11576040519150601f19603f3d011682016040523d82523d6000602084013e612f16565b606091505b5091509150612f2787838387612f32565b979650505050505050565b60608315612fa1578251600003612f9a576001600160a01b0385163b612f9a5760405162461bcd60e51b815260206004820152601d60248201527f416464726573733a2063616c6c20746f206e6f6e2d636f6e74726163740000006044820152606401610843565b5081610d94565b610d948383815115612fb65781518083602001fd5b8060405162461bcd60e51b815260040161084391906130ae565b6001600160e01b03198116811461149057600080fd5b600060208284031215612ff857600080fd5b813561144581612fd0565b60006020828403121561301557600080fd5b5035919050565b60005b8381101561303757818101518382015260200161301f565b50506000910152565b6000815180845261305881602086016020860161301c565b601f01601f19169290920160200192915050565b85815260a06020820152600061308560a0830187613040565b6040830195909552506001600160a01b0392909216606083015260ff1660809091015292915050565b6020815260006114456020830184613040565b6001600160a01b038116811461149057600080fd5b600080604083850312156130e957600080fd5b82356130f4816130c1565b946020939093013593505050565b634e487b7160e01b600052604160045260246000fd5b600067ffffffffffffffff8084111561313357613133613102565b604051601f8501601f19908116603f0116810190828211818310171561315b5761315b613102565b8160405280935085815286868601111561317457600080fd5b858560208301376000602087830101525050509392505050565b600082601f83011261319f57600080fd5b61144583833560208501613118565b60008060008084860360c08112156131c557600080fd5b853567ffffffffffffffff808211156131dd57600080fd5b6131e989838a0161318e565b965060208801359150808211156131ff57600080fd5b818801915088601f83011261321357600080fd5b81358181111561322257600080fd5b89602082850101111561323457600080fd5b6020929092019550909350506080603f198201121561325257600080fd5b509295919450926040019150565b6000806000806080858703121561327657600080fd5b8435613281816130c1565b93506020850135613291816130c1565b925060408501359150606085013567ffffffffffffffff8111156132b457600080fd5b8501601f810187136132c557600080fd5b6132d487823560208401613118565b91505092959194509250565b6000806000606084860312156132f557600080fd5b8335613300816130c1565b92506020840135613310816130c1565b929592945050506040919091013590565b6000806040838503121561333457600080fd5b823591506020830135613346816130c1565b809150509250929050565b803560ff8116811461336257600080fd5b919050565b60008060006060848603121561337c57600080fd5b833567ffffffffffffffff81111561339357600080fd5b61339f8682870161318e565b9350506133ae60208501613351565b9150604084013590509250925092565b6000602082840312156133d057600080fd5b8135611445816130c1565b801515811461149057600080fd5b600080604083850312156133fc57600080fd5b8235613407816130c1565b91506020830135613346816133db565b60006020828403121561342957600080fd5b813567ffffffffffffffff81111561344057600080fd5b610d948482850161318e565b6000806040838503121561345f57600080fd5b823561346a816130c1565b91506020830135613346816130c1565b600181811c9082168061348e57607f821691505b6020821081036134ae57634e487b7160e01b600052602260045260246000fd5b50919050565b600082516134c681846020870161301c565b9190910192915050565b634e487b7160e01b600052601160045260246000fd5b6000600182016134f8576134f86134d0565b5060010190565b60006020828403121561351157600080fd5b61144582613351565b60006020828403121561352c57600080fd5b8151611445816130c1565b6001600160a01b038516815283602082015260606040820152816060820152818360808301376000818301608090810191909152601f909201601f191601019392505050565b601f8211156108e457600081815260208120601f850160051c810160208610156135a45750805b601f850160051c820191505b818110156135c3578281556001016135b0565b505050505050565b815167ffffffffffffffff8111156135e5576135e5613102565b6135f9816135f3845461347a565b8461357d565b602080601f83116001811461362e57600084156136165750858301515b600019600386901b1c1916600185901b1785556135c3565b600085815260208120601f198616915b8281101561365d5788860151825594840194600190910190840161363e565b508582101561367b5787850151600019600388901b60f8161c191681555b5050505050600190811b01905550565b60608152600061369e6060830186613040565b905083602083015260ff83166040830152949350505050565b600083516136c981846020880161301c565b8351908301906136dd81836020880161301c565b01949350505050565b6000602082840312156136f857600080fd5b5051919050565b8082018082111561062d5761062d6134d0565b8181038181111561062d5761062d6134d0565b7f416363657373436f6e74726f6c3a206163636f756e742000000000000000000081526000835161375d81601785016020880161301c565b7f206973206d697373696e6720726f6c6520000000000000000000000000000000601791840191820152835161379a81602884016020880161301c565b01602801949350505050565b60006001600160a01b038087168352808616602084015250836040830152608060608301526137d86080830184613040565b9695505050505050565b6000602082840312156137f457600080fd5b815161144581612fd0565b60006020828403121561381157600080fd5b8151611445816133db565b808202811582820484141761062d5761062d6134d0565b634e487b7160e01b600052603260045260246000fd5b600081613858576138586134d0565b50600019019056fea26469706673582212208f26a7265426d2891653df120b05e466a115795a4617d13e36490e22a46b95ba64736f6c63430008130033",
  "linkReferences": {},
  "deployedLinkReferences": {}
}